{
  "contracts/HelloMary.sol": {
    "HelloMary": {
      "abi": [
        {
          "inputs": [],
          "name": "world",
          "outputs": [
            {
              "internalType": "uint256",
              "name": "",
              "type": "uint256"
            }
          ],
          "stateMutability": "pure",
          "type": "function"
        }
      ],
      "devdoc": {
        "kind": "dev",
        "methods": {},
        "version": 1
      },
      "evm": {
        "bytecode": {
          "linkReferences": {},
          "object": "6080604052348015600f57600080fd5b50607780601d6000396000f3fe6080604052348015600f57600080fd5b506004361060285760003560e01c806330b67baa14602d575b600080fd5b600160405190815260200160405180910390f3fea2646970667358221220a0ffb50a52b6833298cc54404480b997ba11237701e8659d6c2d440f259b28a364736f6c63430008040033",
          "opcodes": "PUSH1 0x80 PUSH1 0x40 MSTORE CALLVALUE DUP1 ISZERO PUSH1 0xF JUMPI PUSH1 0x0 DUP1 REVERT JUMPDEST POP PUSH1 0x77 DUP1 PUSH1 0x1D PUSH1 0x0 CODECOPY PUSH1 0x0 RETURN INVALID PUSH1 0x80 PUSH1 0x40 MSTORE CALLVALUE DUP1 ISZERO PUSH1 0xF JUMPI PUSH1 0x0 DUP1 REVERT JUMPDEST POP PUSH1 0x4 CALLDATASIZE LT PUSH1 0x28 JUMPI PUSH1 0x0 CALLDATALOAD PUSH1 0xE0 SHR DUP1 PUSH4 0x30B67BAA EQ PUSH1 0x2D JUMPI JUMPDEST PUSH1 0x0 DUP1 REVERT JUMPDEST PUSH1 0x1 PUSH1 0x40 MLOAD SWAP1 DUP2 MSTORE PUSH1 0x20 ADD PUSH1 0x40 MLOAD DUP1 SWAP2 SUB SWAP1 RETURN INVALID LOG2 PUSH5 0x6970667358 0x22 SLT KECCAK256 LOG0 SELFDESTRUCT 0xB5 EXP MSTORE 0xB6 DUP4 ORIGIN SWAP9 0xCC SLOAD BLOCKHASH DIFFICULTY DUP1 0xB9 SWAP8 0xBA GT 0x23 PUSH24 0x1E8659D6C2D440F259B28A364736F6C6343000804003300 "
        },
        "gasEstimates": {
          "creation": {
            "codeDepositCost": "23800",
            "executionCost": "75",
            "totalCost": "23875"
          },
          "external": {
            "world()": "146"
          }
        },
        "methodIdentifiers": {
          "world()": "30b67baa"
        }
      },
      "storageLayout": {
        "storage": [],
        "types": null
      },
      "userdoc": {
        "kind": "user",
        "methods": {},
        "version": 1
      }
    }
  }
}