{
  "_format": "hh-sol-artifact-1",
  "contractName": "HelloMary",
  "sourceName": "contracts/HelloMary.sol",
  "abi": [
    {
      "inputs": [],
      "name": "world",
      "outputs": [
        {
          "internalType": "uint256",
          "name": "",
          "type": "uint256"
        }
      ],
      "stateMutability": "pure",
      "type": "function"
    }
  ],
  "bytecode": "0x6080604052348015600f57600080fd5b50607780601d6000396000f3fe6080604052348015600f57600080fd5b506004361060285760003560e01c806330b67baa14602d575b600080fd5b600160405190815260200160405180910390f3fea2646970667358221220a0ffb50a52b6833298cc54404480b997ba11237701e8659d6c2d440f259b28a364736f6c63430008040033",
  "linkReferences": {},
  "deployedLinkReferences": {}
}